{
  "transactions": [
    {
      "hash": "0x735621c4626f751b16b23df9b024d38a1f503518da4142a8f613bc8b1a2c251b",
      "transactionType": "CALL",
      "contractName": null,
      "contractAddress": "0xf25b6b767138eefbc5a653c964c2c493f26d5559",
      "function": "mintNft(string)",
      "arguments": [
        "ipfs://QmYx6GsYAKnNzZ9A6NvEKV9nf1VaDzJrqDR23Y8YSkebLU"
      ],
      "transaction": {
        "from": "0xa28de7725aebe0a8f727beccdcd80c12ae12d984",
        "to": "0xf25b6b767138eefbc5a653c964c2c493f26d5559",
        "gas": "0x35fd3",
        "value": "0x0",
        "input": "0xda86f4a900000000000000000000000000000000000000000000000000000000000000200000000000000000000000000000000000000000000000000000000000000035697066733a2f2f516d597836477359414b6e4e7a5a3941364e76454b56396e66315661447a4a727144523233593859536b65624c550000000000000000000000",
        "nonce": "0x52",
        "chainId": "0xaa36a7"
      },
      "additionalContracts": [],
      "isFixedGasLimit": false
    }
  ],
  "receipts": [
    {
      "status": "0x1",
      "cumulativeGasUsed": "0x73daf7",
      "logs": [
        {
          "address": "0xf25b6b767138eefbc5a653c964c2c493f26d5559",
          "topics": [
            "0xddf252ad1be2c89b69c2b068fc378daa952ba7f163c4a11628f55a4df523b3ef",
            "0x0000000000000000000000000000000000000000000000000000000000000000",
            "0x000000000000000000000000a28de7725aebe0a8f727beccdcd80c12ae12d984",
            "0x0000000000000000000000000000000000000000000000000000000000000000"
          ],
          "data": "0x",
          "blockHash": "0xbda69a0094fa755b51f8c244b10e4b2a1cef3574e9330a4706c7c76fa78771c8",
          "blockNumber": "0x92c4da",
          "blockTimestamp": "0x691552bc",
          "transactionHash": "0x735621c4626f751b16b23df9b024d38a1f503518da4142a8f613bc8b1a2c251b",
          "transactionIndex": "0x40",
          "logIndex": "0x66",
          "removed": false
        }
      ],
      "logsBloom": "0x00008000000000000000000000000000000000000000000000000000000000000000000000000000000000000000000000000000000000000000000000000000000000000000000000000008000000000000000000000000000000000000000000000000020000000000000000000800000000000000000000000010000000000000000000000000040000000000000000000000000000000000000000000000000000000004000000000000000000000000000000000000000000000000000000000002000000000000000001000000000000000000000000000000000020000000000000000000000000001000000000000000000000000000000000200000",
      "type": "0x2",
      "transactionHash": "0x735621c4626f751b16b23df9b024d38a1f503518da4142a8f613bc8b1a2c251b",
      "transactionIndex": "0x40",
      "blockHash": "0xbda69a0094fa755b51f8c244b10e4b2a1cef3574e9330a4706c7c76fa78771c8",
      "blockNumber": "0x92c4da",
      "gasUsed": "0x27165",
      "effectiveGasPrice": "0xf4409",
      "from": "0xa28de7725aebe0a8f727beccdcd80c12ae12d984",
      "to": "0xf25b6b767138eefbc5a653c964c2c493f26d5559",
      "contractAddress": null
    }
  ],
  "libraries": [],
  "pending": [],
  "returns": {},
  "timestamp": 1763005117976,
  "chain": 11155111,
  "commit": null
}