{
  "transactions": [
    {
      "hash": "0x90c5b61af8d2b8f7ca162169832a8b2e933dddd0752a56429e17b02a0b1fd764",
      "transactionType": "CALL",
      "contractName": null,
      "contractAddress": "0xf25b6b767138eefbc5a653c964c2c493f26d5559",
      "function": "mintNft(string)",
      "arguments": [
        "ipfs://QmQuJvuWB18aGWF3sjR5ksd1h7599yhTFfGuju8mtSxQU1"
      ],
      "transaction": {
        "from": "0xa28de7725aebe0a8f727beccdcd80c12ae12d984",
        "to": "0xf25b6b767138eefbc5a653c964c2c493f26d5559",
        "gas": "0x2a74b",
        "value": "0x0",
        "input": "0xda86f4a900000000000000000000000000000000000000000000000000000000000000200000000000000000000000000000000000000000000000000000000000000035697066733a2f2f516d51754a7675574231386147574633736a52356b7364316837353939796854466647756a75386d7453785155310000000000000000000000",
        "nonce": "0x53",
        "chainId": "0xaa36a7"
      },
      "additionalContracts": [],
      "isFixedGasLimit": false
    }
  ],
  "receipts": [
    {
      "status": "0x1",
      "cumulativeGasUsed": "0xda32db",
      "logs": [
        {
          "address": "0xf25b6b767138eefbc5a653c964c2c493f26d5559",
          "topics": [
            "0xddf252ad1be2c89b69c2b068fc378daa952ba7f163c4a11628f55a4df523b3ef",
            "0x0000000000000000000000000000000000000000000000000000000000000000",
            "0x000000000000000000000000a28de7725aebe0a8f727beccdcd80c12ae12d984",
            "0x0000000000000000000000000000000000000000000000000000000000000001"
          ],
          "data": "0x",
          "blockHash": "0x7e6e6dabc51d024f82daff820244699118b4742188e289a6e231760f0b9982e3",
          "blockNumber": "0x92c568",
          "blockTimestamp": "0x69155964",
          "transactionHash": "0x90c5b61af8d2b8f7ca162169832a8b2e933dddd0752a56429e17b02a0b1fd764",
          "transactionIndex": "0x4c",
          "logIndex": "0xb3",
          "removed": false
        }
      ],
      "logsBloom": "0x00008000000000000000000000000000000000000000000000000000000000000000000000000000000000000000000000000000000000000000000000040000000000000000000000000008000000000000000000040000000000000000000000000000020000000000000000000800000000000000000000000010000000000000000000000000040000000000000000000000000000000000000000000000000000000004000000000000000000000000000000000000000000000000000000000002000000000000000001000000000000000000000000000000000060000000000000000000000000001000000000000000000000000000000000200000",
      "type": "0x2",
      "transactionHash": "0x90c5b61af8d2b8f7ca162169832a8b2e933dddd0752a56429e17b02a0b1fd764",
      "transactionIndex": "0x4c",
      "blockHash": "0x7e6e6dabc51d024f82daff820244699118b4742188e289a6e231760f0b9982e3",
      "blockNumber": "0x92c568",
      "gasUsed": "0x1ebcd",
      "effectiveGasPrice": "0xf424a",
      "from": "0xa28de7725aebe0a8f727beccdcd80c12ae12d984",
      "to": "0xf25b6b767138eefbc5a653c964c2c493f26d5559",
      "contractAddress": null
    }
  ],
  "libraries": [],
  "pending": [],
  "returns": {},
  "timestamp": 1763006821599,
  "chain": 11155111,
  "commit": null
}